:100053001200A03081063082031200733080063014
:1000630081031200913082EB3083E812008280E337
:0E00A0001200AEC291C292C295C296D29322B5
:0F007300D291C292D295C29675093C75083C2273
:0F008200C291D292D295C29675083C75091E2282
:0F009100D291C292C295D29675081E75093C2273
:03001B0002001EC2
:10001E00C0E0C0D0758BA4758DFF050AE50AC394A8
:10002E00644003750A00E50AC395095004D2908016
:10003E0002C290E50AC395085004D2948002C2947D
:05004E00D0D0D0E0322B
:0E00AE0053890F758B9C758DFFC28FD28E22E9
:100003005389F0758A9C758CFFC28DD28CD2ABD28A
:04001300AFC2BB229B
:030000000200BC3F
:0C00BC00787FE4F6D8FD75810A0200533D
:00000001FF
