:0800BB001200B11200C380FB2A
:0300D00001093CE7
:0A00B1001200A3C2A1C2A2D2A32232
:0700C300D2A1C2A2D2A022CB
:0E00A30053890F758B9C758DFFC28FD28E22F4
:10008F005389F0758A9C758CFFC28DD28CD2ABD2FE
:04009F00AFC2BB220F
:0600CA00A280E433FF22D6
:03000000020003F8
:0C000300787FE4F6D8FD75810902004A00
:10000F000200BBE493A3F8E493A34003F68001F24C
:10001F0008DFF48029E493A3F85407240CC8C333F2
:10002F00C4540F4420C8834004F456800146F6DFC1
:10003F00E4800B01020408102040809000D0E47E81
:10004F00019360BCA3FF543F30E509541FFEE493B6
:10005F00A360010ECF54C025E060A840B8E493A37D
:10006F00FAE493A3F8E493A3C8C582C8CAC583CAA8
:10007F00F0A3C8C582C8CAC583CADFE9DEE780BE60
:0100D300002C
:00000001FF
