:1000880012015412001E3083FA3081F73082F420B6
:1000980080F13083EE2081EB2082E83080E5120188
:1000A8004512010912001E3083D92081D62082D33F
:0800B8003080D012013680CB2C
:0E015400120003C292C291C294C295D29322AD
:0F010900C292D291C294D29575093775083722E8
:0F011800C292D291C294D29575082875093722E8
:0F012700C292D291C294D29575083775092822D9
:0F013600C292D291D294C29575092D75081222EA
:0F014500D292C291C294D29575082D75091222DB
:03001B000200C020
:1000C000C0E0C0D0758BA4758DFF050AE50AC39406
:1000D000644003750A00E50AC395095004D2908074
:1000E00002C290E50AC395085004D2968002C296D7
:0500F000D0D0D0E03289
:1000030053890F758B9C758DFFC28FD28ED2ABD265
:04001300AFC2BB229B
:1000F5005389F0758A9C758CFFC28DD28CD2ABD298
:04010500AFC2BB22A8
:10001E0030810320820C30810C3082093080063012
:10002E00830312010920830C30810920820620806F
:10003E000312012720800C308209208106208303C1
:10004E0012011830800930810630820330830C3063
:10005E00800C208109208206208303120145308204
:10006E000930830630810330800C20800C208109FA
:0A007E0020820630830312013622AF
:05016E00007F2FDFFE01
:010173002269
:0300000002016298
:0C016200787FE4F6D8FD75810A02008861
:00000001FF
